ID: SW
Metadata: (strobe,) start of orbit, start of packet, end of packet, valid

      Link              000                    001                    002                    003
Frame 0000    0000 0000000000000000  0000 0000000000000000  0000 0000000000000000  0000 0000000000000000
Frame 0001    0000 0000000000000000  0000 0000000000000000  0000 0000000000000000  0000 0000000000000000
Frame 0002    0000 0000000000000000  0000 0000000000000000  0000 0000000000000000  0000 0000000000000000
Frame 0003    0000 0000000000000000  0000 0000000000000000  0000 0000000000000000  0000 0000000000000000
Frame 0004    0000 0000000000000000  0000 0000000000000000  0000 0000000000000000  0000 0000000000000000
Frame 0005    0000 0000000000000000  0000 0000000000000000  0000 0000000000000000  0000 0000000000000000
Frame 0006    1001 000000001C229187  1001 0000000019996878  1001 00000000101B4A4D  1001 000000001A0F13B7
Frame 0007    0001 000000001A58D18E  0001 000000001D8F0BFF  0001 0000000000000000  0001 0000000000000000
Frame 0008    0001 000000001C34F7EC  0001 000000001FC11A3A  0001 0000000015AC5BBA  0001 000000001113730B
Frame 0009    0001 0000000018BA4E9C  0001 000000001D09392C  0001 0000000000000000  0001 000000001F47A270
Frame 0010    0001 0000000000000000  0001 000000001DF91BDE  0001 000000001D77D529  0001 0000000000000000
Frame 0011    0001 000000001CB1C77A  0001 00000000128B20DE  0001 000000001558ED39  0001 0000000000000000
Frame 0012    0001 0000000014CA6226  0001 000000001DCDD49B  0001 0000000000000000  0001 000000001BDFE789
Frame 0013    0001 000000001E73504B  0001 0000000000000000  0001 0000000013985CB1  0001 000000001849AE30
Frame 0014    0001 000000001CDC5124  0001 0000000013A59814  0001 0000000011086E8B  0001 000000001F4B9F27
Frame 0015    0001 0000000000000000  0001 000000001FAF7511  0001 0000000012607222  0001 0000000016CD39BC
Frame 0016    0001 000000001F3230B0  0001 00000000172FE0CF  0001 0000000016C08C07  0001 000000001FE1067B
Frame 0017    0001 0000000016ECB6D7  0001 0000000000000000  0001 000000001F328A00  0001 0000000017E77719
Frame 0018    0001 0000000000000000  0001 00000000107A7E4E  0001 00000000189713E1  0001 000000001DBD013B
Frame 0019    0001 000000001B6531C5  0001 0000000014CCF7E2  0001 000000001F43BF2A  0001 00000000171B72EA
Frame 0020    0001 000000001C678192  0001 0000000012A1A20F  0001 0000000000000000  0001 0000000019590D10
Frame 0021    0001 00000000123000AE  0001 000000001213FD5B  0001 0000000019EB5A27  0001 0000000012F19EC1
Frame 0022    0001 0000000016977674  0001 0000000000000000  0001 00000000183A7D81  0001 0000000014BF3DC8
Frame 0023    0001 0000000017555065  0001 000000001F98CB2D  0001 000000001D41F23D  0001 000000001A0CB3AC
Frame 0024    0001 00000000122FD4D4  0001 000000001BF67773  0001 0000000000000000  0001 000000001EBCC7A6
Frame 0025    0001 00000000172F2E81  0001 0000000013D39102  0001 00000000178487D5  0001 0000000000000000
Frame 0026    0001 0000000000000000  0001 0000000011151AC5  0001 000000001D38EB10  0001 000000001AB6488B
Frame 0027    0001 0000000000000000  0001 000000001D56BF27  0001 000000001BDDD361  0001 0000000016FCBD47
Frame 0028    0001 00000000116EEC8F  0001 0000000015F49F8A  0001 000000001678AA2B  0001 0000000018BDE2AF
Frame 0029    0001 0000000000000000  0001 000000001F78DC06  0001 000000001167DC71  0001 00000000139666B7
Frame 0030    0001 000000001D10F28F  0001 0000000000000000  0001 0000000000000000  0001 0000000000000000
Frame 0031    0001 0000000000000000  0001 000000001A8D2AA4  0001 000000001FFC982D  0001 000000001E67628A
Frame 0032    0001 0000000000000000  0001 0000000014E63F5E  0001 0000000019F2CA17  0001 000000001FD3F31D
Frame 0033    0001 0000000000000000  0001 000000001F73DF0A  0001 0000000000000000  0001 0000000000000000
Frame 0034    0001 0000000000000000  0001 0000000000000000  0001 0000000000000000  0001 000000001DB75D6C
Frame 0035    0001 0000000000000000  0001 0000000000000000  0001 0000000000000000  0001 0000000000000000
Frame 0036    0001 0000000011E359F3  0001 0000000000000000  0001 0000000000000000  0001 0000000013730BFC
Frame 0037    0001 0000000017FFB42D  0001 0000000000000000  0001 0000000000000000  0001 0000000000000000
Frame 0038    0001 0000000000000000  0001 0000000000000000  0001 000000001744270B  0001 000000001F42EE1F
Frame 0039    0001 0000000013A441ED  0001 0000000000000000  0001 0000000000000000  0001 0000000013671C5B
Frame 0040    0001 000000001C65842F  0001 000000001D5B4F86  0001 0000000017E6DC58  0001 000000001495133C
Frame 0041    0001 0000000016B7A2F3  0001 000000001A4E28B6  0001 0000000000000000  0001 000000001C43037E
Frame 0042    0001 000000001BF5E8C1  0001 0000000000000000  0001 000000001C6E57DF  0001 0000000000000000
Frame 0043    0001 000000001DFCC373  0001 0000000011A7F213  0001 0000000017AA625F  0001 0000000000000000
Frame 0044    0001 0000000000000000  0001 0000000000000000  0001 0000000000000000  0001 000000001D9245C8
Frame 0045    0001 0000000000000000  0001 0000000017BE26D9  0001 0000000000000000  0001 0000000000000000
Frame 0046    0001 000000001771F380  0001 0000000000000000  0001 0000000000000000  0001 0000000000000000
Frame 0047    0001 0000000000000000  0001 0000000000000000  0001 000000001F6C6A6E  0001 0000000019F43B94
Frame 0048    0001 0000000000000000  0001 0000000000000000  0001 0000000000000000  0001 0000000000000000
Frame 0049    0001 0000000000000000  0001 0000000000000000  0001 000000001F05EC9D  0001 00000000178BD56F
Frame 0050    0001 0000000018796F6D  0001 000000001CFA9470  0001 0000000000000000  0001 0000000000000000
Frame 0051    0001 00000000177A76EB  0001 0000000000000000  0001 0000000000000000  0001 0000000000000000
Frame 0052    0001 000000001963E1A1  0001 0000000000000000  0001 0000000000000000  0001 0000000000000000
Frame 0053    0001 00000000133B0AE1  0001 00000000155CC474  0001 0000000000000000  0001 0000000013DC2566
Frame 0054    0001 0000000011BF1DE2  0001 000000001DF0D16C  0001 0000000000000000  0001 000000001D18A4CA
Frame 0055    0001 000000001EBC2E33  0001 0000000000000000  0001 0000000000000000  0001 0000000011A23EBD
Frame 0056    0001 000000001A0DC1AD  0001 0000000000000000  0001 000000001FE23043  0001 0000000000000000
Frame 0057    0001 0000000000000000  0001 0000000000000000  0001 0000000000000000  0001 0000000012A03D0E
Frame 0058    0001 0000000016F1A777  0001 0000000000000000  0001 0000000000000000  0001 0000000000000000
Frame 0059    0001 0000000000000000  0001 0000000000000000  0001 0000000000000000  0001 0000000000000000
Frame 0060    0001 000000001319E311  0001 0000000000000000  0001 0000000000000000  0001 0000000000000000
Frame 0061    0001 0000000000000000  0001 0000000000000000  0001 0000000000000000  0001 0000000000000000
Frame 0062    0001 0000000000000000  0001 0000000000000000  0001 0000000000000000  0001 0000000000000000
Frame 0063    0001 0000000000000000  0001 0000000000000000  0001 0000000000000000  0001 000000001E3CC331
Frame 0064    0001 0000000000000000  0001 0000000000000000  0001 0000000000000000  0001 0000000000000000
Frame 0065    0001 0000000000000000  0001 0000000000000000  0001 0000000000000000  0001 0000000000000000
Frame 0066    0001 0000000000000000  0001 0000000000000000  0001 0000000000000000  0001 0000000000000000
Frame 0067    0001 0000000000000000  0001 0000000000000000  0001 0000000000000000  0001 0000000000000000
Frame 0068    0001 0000000000000000  0001 0000000000000000  0001 0000000000000000  0001 0000000000000000
Frame 0069    0001 000000001C1A5E60  0001 0000000000000000  0001 0000000000000000  0001 0000000000000000
Frame 0070    0001 0000000000000000  0001 0000000000000000  0001 0000000000000000  0001 0000000000000000
Frame 0071    0001 0000000000000000  0001 0000000000000000  0001 0000000000000000  0001 0000000000000000
Frame 0072    0001 0000000000000000  0001 0000000000000000  0001 0000000000000000  0001 0000000000000000
Frame 0073    0001 0000000000000000  0001 0000000000000000  0001 0000000000000000  0001 0000000000000000
Frame 0074    0001 0000000000000000  0001 0000000000000000  0001 0000000000000000  0001 0000000000000000
Frame 0075    0001 0000000000000000  0001 0000000000000000  0001 0000000000000000  0001 0000000000000000
Frame 0076    0001 0000000000000000  0001 0000000000000000  0001 0000000000000000  0001 000000001D812AF8
Frame 0077    0001 0000000000000000  0001 0000000000000000  0001 000000001B6EA814  0001 0000000000000000
Frame 0078    0001 0000000000000000  0001 0000000000000000  0001 0000000000000000  0001 0000000000000000
Frame 0079    0001 000000001D511AD1  0001 0000000000000000  0001 0000000000000000  0001 00000000128F218A
Frame 0080    0001 0000000000000000  0001 0000000000000000  0001 0000000000000000  0001 0000000000000000
Frame 0081    0001 0000000000000000  0001 0000000000000000  0001 0000000000000000  0001 0000000000000000
Frame 0082    0001 0000000000000000  0001 000000001FEF4DEE  0001 0000000000000000  0001 00000000165815EF
Frame 0083    0001 0000000000000000  0001 0000000000000000  0001 0000000000000000  0001 0000000000000000
Frame 0084    0001 0000000000000000  0001 0000000000000000  0001 0000000000000000  0001 0000000000000000
Frame 0085    0001 0000000000000000  0001 0000000000000000  0001 0000000000000000  0001 0000000000000000
Frame 0086    0001 0000000000000000  0001 0000000000000000  0001 0000000000000000  0001 0000000000000000
Frame 0087    0001 0000000017D14EE6  0001 0000000000000000  0001 0000000000000000  0001 0000000000000000
Frame 0088    0001 0000000000000000  0001 0000000000000000  0001 0000000000000000  0001 0000000000000000
Frame 0089    0001 0000000000000000  0001 0000000000000000  0001 0000000000000000  0001 0000000000000000
Frame 0090    0001 0000000000000000  0001 0000000000000000  0001 0000000000000000  0001 0000000000000000
Frame 0091    0001 0000000000000000  0001 0000000000000000  0001 0000000000000000  0001 0000000000000000
Frame 0092    0001 0000000000000000  0001 0000000000000000  0001 0000000000000000  0001 0000000000000000
Frame 0093    0001 0000000000000000  0001 0000000000000000  0001 0000000000000000  0001 0000000000000000
Frame 0094    0001 0000000000000000  0001 0000000000000000  0001 0000000000000000  0001 0000000000000000
Frame 0095    0001 0000000000000000  0001 0000000000000000  0001 0000000000000000  0001 0000000000000000
Frame 0096    0001 0000000000000000  0001 0000000000000000  0001 0000000000000000  0001 0000000000000000
Frame 0097    0001 0000000000000000  0001 0000000000000000  0001 0000000000000000  0001 0000000000000000
Frame 0098    0001 0000000000000000  0001 0000000000000000  0001 0000000000000000  0001 0000000000000000
Frame 0099    0001 0000000000000000  0001 0000000000000000  0001 0000000000000000  0001 0000000000000000
Frame 0100    0001 0000000000000000  0001 0000000000000000  0001 0000000000000000  0001 0000000000000000
Frame 0101    0001 0000000000000000  0001 0000000000000000  0001 0000000000000000  0001 0000000000000000
Frame 0102    0001 0000000000000000  0001 0000000000000000  0001 0000000000000000  0001 0000000000000000
Frame 0103    0001 0000000000000000  0001 0000000000000000  0001 0000000000000000  0001 0000000000000000
Frame 0104    0001 0000000000000000  0001 0000000000000000  0001 0000000000000000  0001 0000000000000000
Frame 0105    0001 0000000000000000  0001 0000000000000000  0001 0000000000000000  0001 0000000000000000
Frame 0106    0001 0000000000000000  0001 0000000000000000  0001 0000000000000000  0001 0000000000000000
Frame 0107    0001 0000000000000000  0001 0000000000000000  0001 0000000000000000  0001 0000000000000000
Frame 0108    0001 0000000000000000  0001 0000000000000000  0001 0000000000000000  0001 0000000000000000
Frame 0109    0001 0000000000000000  0001 0000000000000000  0001 0000000000000000  0001 0000000000000000
Frame 0110    0001 0000000000000000  0001 0000000000000000  0001 0000000000000000  0001 0000000000000000
Frame 0111    0001 0000000000000000  0001 0000000000000000  0001 0000000000000000  0001 0000000000000000
Frame 0112    0001 0000000000000000  0001 0000000000000000  0001 0000000000000000  0001 0000000000000000
Frame 0113    0001 0000000000000000  0001 0000000000000000  0001 0000000000000000  0001 0000000000000000
Frame 0114    0001 0000000000000000  0001 0000000000000000  0001 0000000000000000  0001 0000000000000000
Frame 0115    0001 0000000000000000  0001 0000000000000000  0001 0000000000000000  0001 0000000000000000
Frame 0116    0001 0000000000000000  0001 0000000000000000  0001 0000000000000000  0001 0000000000000000
Frame 0117    0001 0000000000000000  0001 0000000000000000  0001 0000000000000000  0001 0000000000000000
Frame 0118    0001 0000000000000000  0001 0000000000000000  0001 0000000000000000  0001 0000000000000000
Frame 0119    0001 0000000000000000  0001 0000000000000000  0001 0000000000000000  0001 0000000000000000
Frame 0120    0001 0000000000000000  0001 0000000000000000  0001 0000000000000000  0001 0000000000000000
Frame 0121    0001 000000001E2D962F  0001 0000000000000000  0001 0000000000000000  0001 0000000000000000
Frame 0122    0001 0000000000000000  0001 0000000000000000  0001 0000000000000000  0001 0000000000000000
Frame 0123    0001 0000000000000000  0001 0000000000000000  0001 0000000000000000  0001 0000000000000000
Frame 0124    0001 0000000000000000  0001 0000000000000000  0001 0000000000000000  0001 0000000000000000
Frame 0125    0001 0000000000000000  0001 0000000000000000  0001 0000000000000000  0001 0000000000000000
Frame 0126    0001 0000000000000000  0001 00000000119D25D8  0001 0000000000000000  0001 0000000000000000
Frame 0127    0001 0000000000000000  0001 0000000000000000  0001 0000000000000000  0001 0000000000000000
Frame 0128    0001 0000000000000000  0001 0000000000000000  0001 0000000000000000  0001 0000000000000000
Frame 0129    0001 0000000000000000  0001 0000000000000000  0001 0000000000000000  0001 0000000000000000
Frame 0130    0001 0000000000000000  0001 0000000000000000  0001 0000000000000000  0001 0000000000000000
Frame 0131    0001 0000000000000000  0001 0000000000000000  0001 0000000000000000  0001 0000000000000000
Frame 0132    0001 0000000000000000  0001 0000000000000000  0001 0000000000000000  0001 0000000000000000
Frame 0133    0001 0000000000000000  0001 0000000000000000  0001 0000000000000000  0001 0000000000000000
Frame 0134    0001 0000000000000000  0001 0000000000000000  0001 0000000000000000  0001 0000000000000000
Frame 0135    0001 0000000000000000  0001 0000000000000000  0001 0000000000000000  0001 0000000000000000
Frame 0136    0001 0000000000000000  0001 0000000000000000  0001 0000000000000000  0001 0000000000000000
Frame 0137    0001 0000000000000000  0001 0000000000000000  0001 0000000000000000  0001 0000000000000000
Frame 0138    0001 0000000000000000  0001 0000000000000000  0001 0000000000000000  0001 0000000000000000
Frame 0139    0001 0000000000000000  0001 0000000000000000  0001 0000000000000000  0001 0000000000000000
Frame 0140    0001 0000000000000000  0001 0000000000000000  0001 0000000000000000  0001 0000000000000000
Frame 0141    0001 0000000000000000  0001 0000000000000000  0001 0000000000000000  0001 0000000000000000
Frame 0142    0001 0000000000000000  0001 0000000000000000  0001 0000000000000000  0001 0000000000000000
Frame 0143    0001 0000000000000000  0001 0000000000000000  0001 0000000000000000  0001 0000000000000000
Frame 0144    0001 0000000000000000  0001 0000000000000000  0001 0000000000000000  0001 0000000000000000
Frame 0145    0001 0000000000000000  0001 0000000000000000  0001 0000000000000000  0001 0000000000000000
Frame 0146    0001 0000000000000000  0001 0000000000000000  0001 0000000000000000  0001 0000000000000000
Frame 0147    0001 0000000000000000  0001 0000000000000000  0001 0000000000000000  0001 0000000000000000
Frame 0148    0001 0000000000000000  0001 0000000000000000  0001 0000000000000000  0001 0000000000000000
Frame 0149    0001 0000000000000000  0001 0000000000000000  0001 0000000000000000  0001 0000000000000000
Frame 0150    0001 0000000000000000  0001 0000000000000000  0001 0000000000000000  0001 0000000000000000
Frame 0151    0001 0000000000000000  0001 0000000000000000  0001 0000000000000000  0001 0000000000000000
Frame 0152    0001 0000000000000000  0001 0000000000000000  0001 0000000000000000  0001 0000000000000000
Frame 0153    0001 0000000000000000  0001 0000000000000000  0001 0000000000000000  0001 0000000000000000
Frame 0154    0001 0000000000000000  0001 0000000000000000  0001 0000000000000000  0001 0000000000000000
Frame 0155    0001 0000000000000000  0001 0000000000000000  0001 0000000000000000  0001 0000000000000000
